:1000000038040020550100004D0100004D010000A2
:1000100000000000000000000000000000000000E0
:100020000000000000000000000000004D01000082
:1000300000000000000000004D0100004D01000024
:100040004D0100004D0100004D0100004D01000078
:100050004D0100004D0100004D01000000000000B6
:100060004D0100004D0100004D0100004D01000058
:100070004D01000000000000000000004D010000E4
:100080004D0100004D0100004D0100004D01000038
:100090004D01000000000000000000004D010000C4
:1000A0004D0100004D0100000000000000000000B4
:1000B0004D0100000448054B10B5834203D0044BAA
:1000C000002B00D0984710BD88060000880600006D
:1000D0000000000006480749091A8B10C90FC9180B
:1000E00010B5491003D0044B002B00D0984710BD29
:1000F00088060000880600000000000010B5074CCC
:100100002378002B09D1FFF7D5FF054B002B02D038
:10011000044800E000BF0123237010BD040000204C
:100120000000000088060000054B10B5002B03D02E
:100130000449054800E000BFFFF7CCFF10BDC046F2
:10014000000000000800002088060000FEE7C0460E
:10015000002070472049214810B5814209D0204B2A
:10016000984206D2013B1A1A92080132920000F01E
:100170006FFA1C481C4B984207D2013B1A1A92088E
:1001800001320021920000F05BFAFF22174B02219E
:100190009343174A93609023164A5B00D150164B45
:1001A0002E319A7B8A4320210A430C219A739A7B31
:1001B0008A4308210A4303219A739A7B8A430221C6
:1001C0000A4380219A730D4A53680B43536000F031
:1001D00013FA00F015F8C046880600000000002061
:1001E0000400002004000020340000200000000073
:1001F00000ED00E000700041004800410040004177
:10020000F0B5DE4657464E464546FE22C64BC74928
:10021000E0B50B60C64BD2031B6885B09B02134050
:10022000C44A1343C44A9361D3685B07FCD50222D6
:10023000C24BFF329A60C24A5A605A78D209FCD146
:100240008222D2015A80BD4A5378DB09FCD1BA4BD5
:10025000DA68D206FCD50022B7489A84C368DB0668
:10026000FCD5B34BB74A1B6812689B0E92059B02E4
:10027000920D13438362B04BDA68D206FCD5B24AC2
:10028000DA62AD4BDA68D206FCD5C12292009A84BC
:10029000A94BDA68D206FCD502209A8C02439A84D4
:1002A000A54AD368DB06FCD5D3681B06F9D5D3680D
:1002B0005B06F6D5A04BDA68D206FCD51E20A34A11
:1002C000536883431C380343536080229B4B520086
:1002D0009A609F4A5A605A78D209FCD19D4A0A60B6
:1002E0009D4A9A609D4A5A60944B5A78D209FCD133
:1002F0009B4A92499A609B4A5A604B78DB09FCD131
:100300008022994B9200186A024340201A629A692F
:1003100002439A611A6A203802431A621A6A1E3826
:1003200082431A629A699A61904B844A4B8053784F
:10033000DB09FCD18E4B5380804A5378DB09FCD11A
:100340008C4B53807D4A5378DB09FCD1402080469A
:100350005022022504264046874B3824995C032707
:10036000A9439954995CB1439954995C0143042081
:10037000844660469954995C01439954802149020E
:1003800099610F21185D8843384301271855985CFF
:10039000384398540132985CA8439854985CB04311
:1003A000985440469E5C06439E546646985C304393
:1003B0009854802080029861185D014030200143EC
:1003C0001955995C394399546C4B6D4A1A608022D7
:1003D000596852000A435A603722DA601A682A4381
:1003E0001A60DA699207FCD410225A83634BDA69E7
:1003F0005207FCD40220634A1368196881431960CC
:1004000099688907FCD499695F4801409961022184
:10041000D96399684906FCD45C491964996809064E
:10042000FCD4196C490859679968C902FCD40220A8
:1004300019680143196099688907FCD45168D36829
:10044000534A4B619146534A80259346D0220191ED
:100450008021904628209C4602AB5C1E474B4902F7
:10046000ED024E465A6832405E465A605A68324043
:100470000A435A60DA695207FCD442465A62DA6982
:100480005207FCD41A7ED207FCD500221A54DA692E
:100490005207FCD41A7ED207FCD55E465A68324019
:1004A0000A435A60DA695207FCD4D1225A62DA69E7
:1004B0005207FCD401261A7E9207FCD51A5CA2557D
:1004C000062E27D0072E01D00136F4E7C0225E6841
:1004D000920232435A60DA695207FCD402AA527877
:1004E0001609B2465746B600BE1B76009219D2B224
:1004F0001A2A14D06246019E72610022264EB26012
:10050000264A72600522326032680A42FCD000221C
:100510003260A6E75A6801362A435A60CBE7624642
:10052000019EB261E9E7C04640420F000000002092
:10053000246080000605000000080040000C004018
:100540000104010028608000B80502140040004149
:1005500000070300006CDC02021800000207030021
:10056000030A000003030100000400401A400000D9
:100570000540000017400000004400410014004204
:100580001400200020000020FFFFFDFFEE0400000B
:10059000FFFFFBFFFFFFFCFF10E000E0FF3D490015
:1005A0000A21124A10B5916080210020104BC90029
:1005B000D1601074536099600E4902301160472277
:1005C000995C81439954995C0230814399540F217D
:1005D0002F301C5C21404024214319540121985C98
:1005E00008439854995C2143995410BD2000002081
:1005F000004400410024004270B500260C4D0D4C13
:10060000641BA410A64209D1002600F02BF80A4D65
:100610000A4C641BA410A64205D170BDB300EB5870
:1006200098470136EEE7B300EB5898470136F2E7FA
:1006300070060000700600007006000078060000DA
:1006400003008218934200D1704719700133F9E713
:10065000002310B59A4200D110BDCC5CC4540133C4
:10066000F8E70000F8B5C046F8BC08BC9E467047E5
:1006700029010000A1050000F8B5C046F8BC08BC7F
:080680009E467047FD000000DA
:0406880040420F00DD
:00000001FF
